{
  "transactions": [
    {
      "hash": "0x479dc215427a62be81d83d3aae7fddb9fac40a4cbf31e0fd339a1a648903f969",
      "transactionType": "CALL",
      "contractName": null,
      "contractAddress": "0x67c94c13d099705bd928e605dea1f8134bf65b39",
      "function": "setPeer(uint32,bytes32)",
      "arguments": [
        "40161",
        "0x000000000000000000000000ffef3f234925bc888920c6a494c51ad45ef61a91"
      ],
      "transaction": {
        "from": "0x070337669a3e72249f39434aa2ca326ab68f09f8",
        "to": "0x67c94c13d099705bd928e605dea1f8134bf65b39",
        "gas": "0x1013c",
        "value": "0x0",
        "input": "0x3400288b0000000000000000000000000000000000000000000000000000000000009ce1000000000000000000000000ffef3f234925bc888920c6a494c51ad45ef61a91",
        "nonce": "0x4",
        "chainId": "0xaa36a7"
      },
      "additionalContracts": [],
      "isFixedGasLimit": false
    }
  ],
  "receipts": [
    {
      "status": "0x1",
      "cumulativeGasUsed": "0xb23a81",
      "logs": [
        {
          "address": "0x67c94c13d099705bd928e605dea1f8134bf65b39",
          "topics": [
            "0x238399d427b947898edb290f5ff0f9109849b1c3ba196a42e35f00c50a54b98b"
          ],
          "data": "0x0000000000000000000000000000000000000000000000000000000000009ce1000000000000000000000000ffef3f234925bc888920c6a494c51ad45ef61a91",
          "blockHash": "0xdce8ad09ff30f60f8536929cfd3918eb472e89bff45892a8e905042976c57334",
          "blockNumber": "0x69e133",
          "transactionHash": "0x479dc215427a62be81d83d3aae7fddb9fac40a4cbf31e0fd339a1a648903f969",
          "transactionIndex": "0x50",
          "logIndex": "0x60",
          "removed": false
        }
      ],
      "logsBloom": "0x04000000000000000000000000000000000000000000000000000000000000000000000000000000000000000000000000000000000000000800001000000000000000000000000000000000000000000000000000000000000000000000000000000000000000000000000000000000000000000000000000000000000000000000000000000000000000000000000000000000000000000000000000000000000000000000000000000000000000000000000000000000000002000000000000000000000000000000000000000000000000000000100000040000000000000000000000000000000000000000000000000000000000000000000000000000",
      "type": "0x2",
      "transactionHash": "0x479dc215427a62be81d83d3aae7fddb9fac40a4cbf31e0fd339a1a648903f969",
      "transactionIndex": "0x50",
      "blockHash": "0xdce8ad09ff30f60f8536929cfd3918eb472e89bff45892a8e905042976c57334",
      "blockNumber": "0x69e133",
      "gasUsed": "0xba3d",
      "effectiveGasPrice": "0xa49cc2",
      "from": "0x070337669a3e72249f39434aa2ca326ab68f09f8",
      "to": "0x67c94c13d099705bd928e605dea1f8134bf65b39",
      "contractAddress": null
    }
  ],
  "libraries": [],
  "pending": [],
  "returns": {},
  "timestamp": 1729812040,
  "chain": 11155111,
  "commit": "9b7e5ac"
}