{
  "transactions": [
    {
      "hash": "0xd35f4b77e963676212147769764f03cb2126b3a7269899a674d714a0ad37d4bb",
      "transactionType": "CALL",
      "contractName": null,
      "contractAddress": "0xe9ad247bac60d633cace19a37da87824503c71d6",
      "function": "mint(address,uint256,uint256)",
      "arguments": [
        "0x070337669A3e72249F39434Aa2CA326Ab68f09F8",
        "1",
        "1000"
      ],
      "transaction": {
        "from": "0x070337669a3e72249f39434aa2ca326ab68f09f8",
        "to": "0xe9ad247bac60d633cace19a37da87824503c71d6",
        "gas": "0xffc3",
        "value": "0x0",
        "input": "0x156e29f6000000000000000000000000070337669a3e72249f39434aa2ca326ab68f09f8000000000000000000000000000000000000000000000000000000000000000100000000000000000000000000000000000000000000000000000000000003e8",
        "nonce": "0x7e",
        "chainId": "0x66eee"
      },
      "additionalContracts": [],
      "isFixedGasLimit": false
    }
  ],
  "receipts": [
    {
      "status": "0x1",
      "cumulativeGasUsed": "0xc338",
      "logs": [
        {
          "address": "0xe9ad247bac60d633cace19a37da87824503c71d6",
          "topics": [
            "0xc3d58168c5ae7397731d063d5bbf3d657854427343f4c083240f7aacaa2d0f62",
            "0x000000000000000000000000070337669a3e72249f39434aa2ca326ab68f09f8",
            "0x0000000000000000000000000000000000000000000000000000000000000000",
            "0x000000000000000000000000070337669a3e72249f39434aa2ca326ab68f09f8"
          ],
          "data": "0x000000000000000000000000000000000000000000000000000000000000000100000000000000000000000000000000000000000000000000000000000003e8",
          "blockHash": "0x6f93ce358d9d05eb56b92e47aec981b8e8d4e1987adbed099db1720ee17ce23e",
          "blockNumber": "0x5c9e55a",
          "transactionHash": "0xd35f4b77e963676212147769764f03cb2126b3a7269899a674d714a0ad37d4bb",
          "transactionIndex": "0x1",
          "logIndex": "0x0",
          "removed": false
        }
      ],
      "logsBloom": "0x00000000000000000000000000000000000000000000000000000000000000000000000000000000000000000000000000008000000000000000000000002000000000000000000000000000000000000000000000000000000000000000004000000000020000000000000000000800000000000000000000000000000000000000000000000000001000000000000000000000000000000000000080000000000001000000000000000000008000000000000000000000000000000000000000000000000000000000000000000000000000000008000000000000000020000000000000000000000000000000000000000000000000000000080000000000",
      "type": "0x2",
      "transactionHash": "0xd35f4b77e963676212147769764f03cb2126b3a7269899a674d714a0ad37d4bb",
      "transactionIndex": "0x1",
      "blockHash": "0x6f93ce358d9d05eb56b92e47aec981b8e8d4e1987adbed099db1720ee17ce23e",
      "blockNumber": "0x5c9e55a",
      "gasUsed": "0xc338",
      "effectiveGasPrice": "0x5f5e100",
      "from": "0x070337669a3e72249f39434aa2ca326ab68f09f8",
      "to": "0xe9ad247bac60d633cace19a37da87824503c71d6",
      "contractAddress": null,
      "gasUsedForL1": "0x0",
      "l1BlockNumber": "0x6be828"
    }
  ],
  "libraries": [],
  "pending": [],
  "returns": {},
  "timestamp": 1731543256,
  "chain": 421614,
  "commit": "960d1b7"
}