{
  "transactions": [
    {
      "hash": "0x43d52513053f235e89e7cfe7d171797635054625abc363cff12b1398a0c94eae",
      "transactionType": "CALL",
      "contractName": null,
      "contractAddress": "0xd7db5038fb3a06a3bfed6bab3b7e526d1f241277",
      "function": "mint(address,uint256,uint256)",
      "arguments": [
        "0x070337669A3e72249F39434Aa2CA326Ab68f09F8",
        "1",
        "1000"
      ],
      "transaction": {
        "from": "0x070337669a3e72249f39434aa2ca326ab68f09f8",
        "to": "0xd7db5038fb3a06a3bfed6bab3b7e526d1f241277",
        "gas": "0xffc3",
        "value": "0x0",
        "input": "0x156e29f6000000000000000000000000070337669a3e72249f39434aa2ca326ab68f09f8000000000000000000000000000000000000000000000000000000000000000100000000000000000000000000000000000000000000000000000000000003e8",
        "nonce": "0x6e",
        "chainId": "0x66eee"
      },
      "additionalContracts": [],
      "isFixedGasLimit": false
    }
  ],
  "receipts": [
    {
      "status": "0x1",
      "cumulativeGasUsed": "0xc338",
      "logs": [
        {
          "address": "0xd7db5038fb3a06a3bfed6bab3b7e526d1f241277",
          "topics": [
            "0xc3d58168c5ae7397731d063d5bbf3d657854427343f4c083240f7aacaa2d0f62",
            "0x000000000000000000000000070337669a3e72249f39434aa2ca326ab68f09f8",
            "0x0000000000000000000000000000000000000000000000000000000000000000",
            "0x000000000000000000000000070337669a3e72249f39434aa2ca326ab68f09f8"
          ],
          "data": "0x000000000000000000000000000000000000000000000000000000000000000100000000000000000000000000000000000000000000000000000000000003e8",
          "blockHash": "0x3cff490887e886552652cc9c9681bca8e6a7db6a5457ef67c49d9b94b6cadd83",
          "blockNumber": "0x5c9c25b",
          "transactionHash": "0x43d52513053f235e89e7cfe7d171797635054625abc363cff12b1398a0c94eae",
          "transactionIndex": "0x1",
          "logIndex": "0x0",
          "removed": false
        }
      ],
      "logsBloom": "0x00000000000000000000000000000000000000000000000000000000000000000000000000000000000000000000000000008000000000000000000000002000000000000000001000000000000000000000000000000000000000000000004000000000020000000000000000000800000000000000000000000000002000000000000000000000000000000000000000000000000000000000000080000000000000000000000000000000000000000000000000000000000000000000000000000000000000000000000000000000000000000108000000000000000020000000000000000000000000000000000000000000000000000000080000000000",
      "type": "0x2",
      "transactionHash": "0x43d52513053f235e89e7cfe7d171797635054625abc363cff12b1398a0c94eae",
      "transactionIndex": "0x1",
      "blockHash": "0x3cff490887e886552652cc9c9681bca8e6a7db6a5457ef67c49d9b94b6cadd83",
      "blockNumber": "0x5c9c25b",
      "gasUsed": "0xc338",
      "effectiveGasPrice": "0x5f5e100",
      "from": "0x070337669a3e72249f39434aa2ca326ab68f09f8",
      "to": "0xd7db5038fb3a06a3bfed6bab3b7e526d1f241277",
      "contractAddress": null,
      "gasUsedForL1": "0x0",
      "l1BlockNumber": "0x6be75b"
    }
  ],
  "libraries": [],
  "pending": [],
  "returns": {},
  "timestamp": 1731540640,
  "chain": 421614,
  "commit": "960d1b7"
}