{
  "transactions": [
    {
      "hash": "0x96d1b6ab593605c32ff47fbbcce200fcba6954444f5fc7313ac31be75ce65fba",
      "transactionType": "CALL",
      "contractName": null,
      "contractAddress": "0x1e38afbb2628943abbdcdab7151fa84990930f4c",
      "function": "mint(address,uint256,uint256)",
      "arguments": [
        "0x70483FD3d156316D4E5d4379D9c050e3C5a521b8",
        "1",
        "1000"
      ],
      "transaction": {
        "from": "0x070337669a3e72249f39434aa2ca326ab68f09f8",
        "to": "0x1e38afbb2628943abbdcdab7151fa84990930f4c",
        "gas": "0x110b5",
        "value": "0x0",
        "input": "0x156e29f600000000000000000000000070483fd3d156316d4e5d4379d9c050e3c5a521b8000000000000000000000000000000000000000000000000000000000000000100000000000000000000000000000000000000000000000000000000000003e8",
        "nonce": "0x98",
        "chainId": "0x66eee"
      },
      "additionalContracts": [],
      "isFixedGasLimit": false
    }
  ],
  "receipts": [
    {
      "status": "0x1",
      "cumulativeGasUsed": "0xce55",
      "logs": [
        {
          "address": "0x1e38afbb2628943abbdcdab7151fa84990930f4c",
          "topics": [
            "0xc3d58168c5ae7397731d063d5bbf3d657854427343f4c083240f7aacaa2d0f62",
            "0x000000000000000000000000070337669a3e72249f39434aa2ca326ab68f09f8",
            "0x0000000000000000000000000000000000000000000000000000000000000000",
            "0x00000000000000000000000070483fd3d156316d4e5d4379d9c050e3c5a521b8"
          ],
          "data": "0x000000000000000000000000000000000000000000000000000000000000000100000000000000000000000000000000000000000000000000000000000003e8",
          "blockHash": "0xf0b81e7aa66ba36a177db0c1f22224797bd19ebf2333eee5c923fe99bfef3b66",
          "blockNumber": "0x5d2b49c",
          "transactionHash": "0x96d1b6ab593605c32ff47fbbcce200fcba6954444f5fc7313ac31be75ce65fba",
          "transactionIndex": "0x1",
          "logIndex": "0x0",
          "removed": false
        }
      ],
      "logsBloom": "0x00000000000000000000000000000100000000000000000000000100000000020000000000000000000000000000000000008000000000000000000000002000000000000000000000000000000000000000000000000000000000000000004000000010020000000000000000000800000000000000000008000000000000000000000000000000000000000000000000000000000000000000000080000000000000000000000000000000000000000000000000000000000000000000000000000000000000000000000000000000000000000408000000000000000020000000000000000000000000000000000000000000000000000000080000000000",
      "type": "0x2",
      "transactionHash": "0x96d1b6ab593605c32ff47fbbcce200fcba6954444f5fc7313ac31be75ce65fba",
      "transactionIndex": "0x1",
      "blockHash": "0xf0b81e7aa66ba36a177db0c1f22224797bd19ebf2333eee5c923fe99bfef3b66",
      "blockNumber": "0x5d2b49c",
      "gasUsed": "0xce55",
      "effectiveGasPrice": "0x5f5e100",
      "from": "0x070337669a3e72249f39434aa2ca326ab68f09f8",
      "to": "0x1e38afbb2628943abbdcdab7151fa84990930f4c",
      "contractAddress": null,
      "gasUsedForL1": "0x159",
      "l1BlockNumber": "0x6c1ae4"
    }
  ],
  "libraries": [],
  "pending": [],
  "returns": {},
  "timestamp": 1731708976,
  "chain": 421614,
  "commit": "3712dc9"
}