{
  "transactions": [
    {
      "hash": "0x5171c6dd57c55838be4a0218a06d78375a1eed7997b74dceb6fdb5ccd1fa0b50",
      "transactionType": "CALL",
      "contractName": null,
      "contractAddress": "0x1e38afbb2628943abbdcdab7151fa84990930f4c",
      "function": "mint(address,uint256,uint256)",
      "arguments": [
        "0x070337669A3e72249F39434Aa2CA326Ab68f09F8",
        "1",
        "1000"
      ],
      "transaction": {
        "from": "0x070337669a3e72249f39434aa2ca326ab68f09f8",
        "to": "0x1e38afbb2628943abbdcdab7151fa84990930f4c",
        "gas": "0xffc3",
        "value": "0x0",
        "input": "0x156e29f6000000000000000000000000070337669a3e72249f39434aa2ca326ab68f09f8000000000000000000000000000000000000000000000000000000000000000100000000000000000000000000000000000000000000000000000000000003e8",
        "nonce": "0x8b",
        "chainId": "0x66eee"
      },
      "additionalContracts": [],
      "isFixedGasLimit": false
    }
  ],
  "receipts": [
    {
      "status": "0x1",
      "cumulativeGasUsed": "0xc338",
      "logs": [
        {
          "address": "0x1e38afbb2628943abbdcdab7151fa84990930f4c",
          "topics": [
            "0xc3d58168c5ae7397731d063d5bbf3d657854427343f4c083240f7aacaa2d0f62",
            "0x000000000000000000000000070337669a3e72249f39434aa2ca326ab68f09f8",
            "0x0000000000000000000000000000000000000000000000000000000000000000",
            "0x000000000000000000000000070337669a3e72249f39434aa2ca326ab68f09f8"
          ],
          "data": "0x000000000000000000000000000000000000000000000000000000000000000100000000000000000000000000000000000000000000000000000000000003e8",
          "blockHash": "0x650d67f3d20ec90ebf91f9ccf53fbf310fa62d8564c55a821abb8bfb1d04ccf6",
          "blockNumber": "0x5c9e8f7",
          "transactionHash": "0x5171c6dd57c55838be4a0218a06d78375a1eed7997b74dceb6fdb5ccd1fa0b50",
          "transactionIndex": "0x1",
          "logIndex": "0x0",
          "removed": false
        }
      ],
      "logsBloom": "0x00000000000000000000000000000100000000000000000000000000000000020000000000000000000000000000000000008000000000000000000000002000000000000000000000000000000000000000000000000000000000000000004000000000020000000000000000000800000000000000000008000000000000000000000000000000000000000000000000000000000000000000000080000000000000000000000000000000000000000000000000000000000000000000000000000000000000000000000000000000000000000008000000000000000020000000000000000000000000000000000000000000000000000000080000000000",
      "type": "0x2",
      "transactionHash": "0x5171c6dd57c55838be4a0218a06d78375a1eed7997b74dceb6fdb5ccd1fa0b50",
      "transactionIndex": "0x1",
      "blockHash": "0x650d67f3d20ec90ebf91f9ccf53fbf310fa62d8564c55a821abb8bfb1d04ccf6",
      "blockNumber": "0x5c9e8f7",
      "gasUsed": "0xc338",
      "effectiveGasPrice": "0x5f5e100",
      "from": "0x070337669a3e72249f39434aa2ca326ab68f09f8",
      "to": "0x1e38afbb2628943abbdcdab7151fa84990930f4c",
      "contractAddress": null,
      "gasUsedForL1": "0x0",
      "l1BlockNumber": "0x6be83d"
    }
  ],
  "libraries": [],
  "pending": [],
  "returns": {},
  "timestamp": 1731543534,
  "chain": 421614,
  "commit": "960d1b7"
}