{
  "transactions": [
    {
      "hash": "0x1c541b7e6b096af7bd98b41a0908cc3a6fe8dd3bd8c863f93cac893dfe9bc70a",
      "transactionType": "CALL",
      "contractName": null,
      "contractAddress": "0x112296ef315cf3e173a9329659f0894dc82ec2a6",
      "function": "setPeer(uint32,bytes32)",
      "arguments": [
        "40231",
        "0x00000000000000000000000051b74a0503fa6700f3b5578a39e5b1aec42ebd8d"
      ],
      "transaction": {
        "from": "0x070337669a3e72249f39434aa2ca326ab68f09f8",
        "to": "0x112296ef315cf3e173a9329659f0894dc82ec2a6",
        "gas": "0x110a1",
        "value": "0x0",
        "input": "0x3400288b0000000000000000000000000000000000000000000000000000000000009d2700000000000000000000000051b74a0503fa6700f3b5578a39e5b1aec42ebd8d",
        "nonce": "0x21",
        "chainId": "0xaa36a7"
      },
      "additionalContracts": [],
      "isFixedGasLimit": false
    }
  ],
  "receipts": [
    {
      "status": "0x1",
      "cumulativeGasUsed": "0x1ad6e8d",
      "logs": [
        {
          "address": "0x112296ef315cf3e173a9329659f0894dc82ec2a6",
          "topics": [
            "0x238399d427b947898edb290f5ff0f9109849b1c3ba196a42e35f00c50a54b98b"
          ],
          "data": "0x0000000000000000000000000000000000000000000000000000000000009d2700000000000000000000000051b74a0503fa6700f3b5578a39e5b1aec42ebd8d",
          "blockHash": "0xc240ea9c8339fb8dc563a1ef7452cd49cefcf2f68e1577359dfb065695c779b3",
          "blockNumber": "0x6ca150",
          "transactionHash": "0x1c541b7e6b096af7bd98b41a0908cc3a6fe8dd3bd8c863f93cac893dfe9bc70a",
          "transactionIndex": "0x6d",
          "logIndex": "0x25f",
          "removed": false
        }
      ],
      "logsBloom": "0x00000000000000000000000000000000000000000000000000000000000000000000000000000000000000000000000000000000000000000800008000000000000000000000000000000000000000000000000100000000000000000000000000000000000000000000000000000000000000000000000000000000000000000000000000000000000000000000000000000000001000000000000000000000000000000000000000000000000000000000000000000000000002000000000000000000000000000000000000000000000000000000000000040000000000000000000000000000000000000000000000000000000000000000000000000000",
      "type": "0x2",
      "transactionHash": "0x1c541b7e6b096af7bd98b41a0908cc3a6fe8dd3bd8c863f93cac893dfe9bc70a",
      "transactionIndex": "0x6d",
      "blockHash": "0xc240ea9c8339fb8dc563a1ef7452cd49cefcf2f68e1577359dfb065695c779b3",
      "blockNumber": "0x6ca150",
      "gasUsed": "0xba6a",
      "effectiveGasPrice": "0x114f8c436",
      "from": "0x070337669a3e72249f39434aa2ca326ab68f09f8",
      "to": "0x112296ef315cf3e173a9329659f0894dc82ec2a6",
      "contractAddress": null
    }
  ],
  "libraries": [],
  "pending": [],
  "returns": {},
  "timestamp": 1732149127,
  "chain": 11155111,
  "commit": "26c5c93"
}