{
  "transactions": [
    {
      "hash": "0x18964e9f224174f86e7f20a3359909cb75db64a4e52035e1ff6df19b87e83935",
      "transactionType": "CALL",
      "contractName": null,
      "contractAddress": "0xffef3f234925bc888920c6a494c51ad45ef61a91",
      "function": "setPeer(uint32,bytes32)",
      "arguments": [
        "40231",
        "0x00000000000000000000000067c94c13d099705bd928e605dea1f8134bf65b39"
      ],
      "transaction": {
        "from": "0x070337669a3e72249f39434aa2ca326ab68f09f8",
        "to": "0xffef3f234925bc888920c6a494c51ad45ef61a91",
        "gas": "0xf417",
        "value": "0x0",
        "input": "0x3400288b0000000000000000000000000000000000000000000000000000000000009d2700000000000000000000000067c94c13d099705bd928e605dea1f8134bf65b39",
        "nonce": "0x4f",
        "chainId": "0x66eee"
      },
      "additionalContracts": [],
      "isFixedGasLimit": false
    }
  ],
  "receipts": [
    {
      "status": "0x1",
      "cumulativeGasUsed": "0xba3e",
      "logs": [
        {
          "address": "0xffef3f234925bc888920c6a494c51ad45ef61a91",
          "topics": [
            "0x238399d427b947898edb290f5ff0f9109849b1c3ba196a42e35f00c50a54b98b"
          ],
          "data": "0x0000000000000000000000000000000000000000000000000000000000009d2700000000000000000000000067c94c13d099705bd928e605dea1f8134bf65b39",
          "blockHash": "0x7abda590f36f644788c4b1cca6e95478e2fe2e2fcfee5be03351a8d4f64fb191",
          "blockNumber": "0x57306e0",
          "transactionHash": "0x18964e9f224174f86e7f20a3359909cb75db64a4e52035e1ff6df19b87e83935",
          "transactionIndex": "0x1",
          "logIndex": "0x0",
          "removed": false
        }
      ],
      "logsBloom": "0x00000000000000000000000000000000000000000000000000000000000000000000000000000000000000000000000000000000000000000800000000000000000000000000000000000000000000000000000000000000000000000000000000000000000000000000000000000000000000000000000000000000000000000000000000020000000000000000000000000000000000000000000000000000000000000000000000000000000000000000000000000000000002000000000000000000000000000000000000000000000000000000000000040000000000000000000000000000000000000000000100000000000000000000000000001000",
      "type": "0x2",
      "transactionHash": "0x18964e9f224174f86e7f20a3359909cb75db64a4e52035e1ff6df19b87e83935",
      "transactionIndex": "0x1",
      "blockHash": "0x7abda590f36f644788c4b1cca6e95478e2fe2e2fcfee5be03351a8d4f64fb191",
      "blockNumber": "0x57306e0",
      "gasUsed": "0xba3e",
      "effectiveGasPrice": "0x5f5e100",
      "from": "0x070337669a3e72249f39434aa2ca326ab68f09f8",
      "to": "0xffef3f234925bc888920c6a494c51ad45ef61a91",
      "contractAddress": null,
      "gasUsedForL1": "0xd",
      "l1BlockNumber": "0x69e12c"
    }
  ],
  "libraries": [],
  "pending": [],
  "returns": {},
  "timestamp": 1729811946,
  "chain": 421614,
  "commit": "9b7e5ac"
}