{
  "transactions": [
    {
      "hash": "0xabfce906d5b08781b7b56fe79bf817f098b844e49f12f22ac2ec66df8435e1c6",
      "transactionType": "CALL",
      "contractName": null,
      "contractAddress": "0x51b74a0503fa6700f3b5578a39e5b1aec42ebd8d",
      "function": "setPeer(uint32,bytes32)",
      "arguments": [
        "40161",
        "0x000000000000000000000000112296ef315cf3e173a9329659f0894dc82ec2a6"
      ],
      "transaction": {
        "from": "0x070337669a3e72249f39434aa2ca326ab68f09f8",
        "to": "0x51b74a0503fa6700f3b5578a39e5b1aec42ebd8d",
        "gas": "0x4c21e",
        "value": "0x0",
        "input": "0x3400288b0000000000000000000000000000000000000000000000000000000000009ce1000000000000000000000000112296ef315cf3e173a9329659f0894dc82ec2a6",
        "nonce": "0xa7",
        "chainId": "0x66eee"
      },
      "additionalContracts": [],
      "isFixedGasLimit": false
    }
  ],
  "receipts": [
    {
      "status": "0x1",
      "cumulativeGasUsed": "0x2fb1c",
      "logs": [
        {
          "address": "0x51b74a0503fa6700f3b5578a39e5b1aec42ebd8d",
          "topics": [
            "0x238399d427b947898edb290f5ff0f9109849b1c3ba196a42e35f00c50a54b98b"
          ],
          "data": "0x0000000000000000000000000000000000000000000000000000000000009ce1000000000000000000000000112296ef315cf3e173a9329659f0894dc82ec2a6",
          "blockHash": "0x784f9afc99ad4563d9ff260d8a849156cabb3e4b7a859f641e398a45554e5a58",
          "blockNumber": "0x5e84667",
          "transactionHash": "0xabfce906d5b08781b7b56fe79bf817f098b844e49f12f22ac2ec66df8435e1c6",
          "transactionIndex": "0x1",
          "logIndex": "0x0",
          "removed": false
        }
      ],
      "logsBloom": "0x00000000000000000000000000200000000000000000000000000000001000000000000000000000000000000000000000000000000000000800000000000000000000000000000000000000100000000000000000000000000000000000000000000000000000000000000000000000000000000000000000000000000000000000000000000000000000000000000000000000000000000000000000000000000000000000000000000000000000000000000000000000000002000000000000000000000000000000000000000000000000000000000000040000000000000000000000000000000000000000000000000000000000000000000000000000",
      "type": "0x2",
      "transactionHash": "0xabfce906d5b08781b7b56fe79bf817f098b844e49f12f22ac2ec66df8435e1c6",
      "transactionIndex": "0x1",
      "blockHash": "0x784f9afc99ad4563d9ff260d8a849156cabb3e4b7a859f641e398a45554e5a58",
      "blockNumber": "0x5e84667",
      "gasUsed": "0x2fb1c",
      "effectiveGasPrice": "0x5f5e100",
      "from": "0x070337669a3e72249f39434aa2ca326ab68f09f8",
      "to": "0x51b74a0503fa6700f3b5578a39e5b1aec42ebd8d",
      "contractAddress": null,
      "gasUsedForL1": "0x24120",
      "l1BlockNumber": "0x6ca17f"
    }
  ],
  "libraries": [],
  "pending": [],
  "returns": {},
  "timestamp": 1732149708,
  "chain": 421614,
  "commit": "26c5c93"
}