{
  "transactions": [
    {
      "hash": "0x525f4b37260d7c45243bec42e6ed834104db553bfd3669dbc15a412be8f8207d",
      "transactionType": "CALL",
      "contractName": null,
      "contractAddress": "0x0b70f10f27badcd1341e78387607c6fd6fd8f8dc",
      "function": "propose(address[],uint256[],bytes[],string)",
      "arguments": [
        "[0x070337669A3e72249F39434Aa2CA326Ab68f09F8]",
        "[100000000000000]",
        "[0x]",
        "Proposal to send 0.0001 ETH (timestamp: 1731613237)"
      ],
      "transaction": {
        "from": "0x070337669a3e72249f39434aa2ca326ab68f09f8",
        "to": "0x0b70f10f27badcd1341e78387607c6fd6fd8f8dc",
        "gas": "0x4b8e3",
        "value": "0x0",
        "input": "0x7d5e81e2000000000000000000000000000000000000000000000000000000000000008000000000000000000000000000000000000000000000000000000000000000c0000000000000000000000000000000000000000000000000000000000000010000000000000000000000000000000000000000000000000000000000000001600000000000000000000000000000000000000000000000000000000000000001000000000000000000000000070337669a3e72249f39434aa2ca326ab68f09f8000000000000000000000000000000000000000000000000000000000000000100000000000000000000000000000000000000000000000000005af3107a4000000000000000000000000000000000000000000000000000000000000000000100000000000000000000000000000000000000000000000000000000000000200000000000000000000000000000000000000000000000000000000000000000000000000000000000000000000000000000000000000000000000000000003350726f706f73616c20746f2073656e6420302e3030303120455448202874696d657374616d703a20313733313631333233372900000000000000000000000000",
        "nonce": "0x93",
        "chainId": "0x66eee"
      },
      "additionalContracts": [],
      "isFixedGasLimit": false
    }
  ],
  "receipts": [
    {
      "status": "0x1",
      "cumulativeGasUsed": "0x395cc",
      "logs": [
        {
          "address": "0x0b70f10f27badcd1341e78387607c6fd6fd8f8dc",
          "topics": [
            "0x7d84a6263ae0d98d3329bd7b46bb4e8d6f98cd35a7adb45c274c8b7fd5ebd5e0"
          ],
          "data": "0x6d38fa787d9b959ffb8815f4a08298c4d140a2898314d140c269785b7dfcdcf6000000000000000000000000070337669a3e72249f39434aa2ca326ab68f09f80000000000000000000000000000000000000000000000000000000000000120000000000000000000000000000000000000000000000000000000000000016000000000000000000000000000000000000000000000000000000000000001a0000000000000000000000000000000000000000000000000000000000000020000000000000000000000000000000000000000000000000000000000006bfd9900000000000000000000000000000000000000000000000000000000006c19b900000000000000000000000000000000000000000000000000000000000002600000000000000000000000000000000000000000000000000000000000000001000000000000000000000000070337669a3e72249f39434aa2ca326ab68f09f8000000000000000000000000000000000000000000000000000000000000000100000000000000000000000000000000000000000000000000005af3107a4000000000000000000000000000000000000000000000000000000000000000000100000000000000000000000000000000000000000000000000000000000000200000000000000000000000000000000000000000000000000000000000000000000000000000000000000000000000000000000000000000000000000000000100000000000000000000000000000000000000000000000000000000000000200000000000000000000000000000000000000000000000000000000000000000000000000000000000000000000000000000000000000000000000000000003350726f706f73616c20746f2073656e6420302e3030303120455448202874696d657374616d703a20313733313631333233372900000000000000000000000000",
          "blockHash": "0x6780aaae5c4f6902fd67a680cacf8de340af6d81884b838e27e2c8d6f9168dc8",
          "blockNumber": "0x5cdbd56",
          "transactionHash": "0x525f4b37260d7c45243bec42e6ed834104db553bfd3669dbc15a412be8f8207d",
          "transactionIndex": "0x1",
          "logIndex": "0x0",
          "removed": false
        }
      ],
      "logsBloom": "0x00000000000000000000000000000000000000000000000000000000000000000000000000000000000000000000000000000000000000000000000000000000000000000002000000000000000000000000000000000000000000000000000000000000000000000000000000000000000000000000000000000000000000000000000000000000000000000000000000000000000000000000000000000000080000000100000000000000000000000000000000000000100000000000000200000000000000000000000000000000000000000000000000000000000000000000000000000000000000000000000000000000000001000000000000000000",
      "type": "0x2",
      "transactionHash": "0x525f4b37260d7c45243bec42e6ed834104db553bfd3669dbc15a412be8f8207d",
      "transactionIndex": "0x1",
      "blockHash": "0x6780aaae5c4f6902fd67a680cacf8de340af6d81884b838e27e2c8d6f9168dc8",
      "blockNumber": "0x5cdbd56",
      "gasUsed": "0x395cc",
      "effectiveGasPrice": "0x5f5e100",
      "from": "0x070337669a3e72249f39434aa2ca326ab68f09f8",
      "to": "0x0b70f10f27badcd1341e78387607c6fd6fd8f8dc",
      "contractAddress": null,
      "gasUsedForL1": "0x105",
      "l1BlockNumber": "0x6bfd8f"
    }
  ],
  "libraries": [],
  "pending": [],
  "returns": {},
  "timestamp": 1731613244,
  "chain": 421614,
  "commit": "20dad1d"
}