{
  "transactions": [
    {
      "hash": "0x8626a7ecf9820f2e8e6f1a0dd7263dd67121e3a386c910a3388dbfe590d47a07",
      "transactionType": "CALL",
      "contractName": null,
      "contractAddress": "0x0b70f10f27badcd1341e78387607c6fd6fd8f8dc",
      "function": "propose(address[],uint256[],bytes[],string)",
      "arguments": [
        "[0x070337669A3e72249F39434Aa2CA326Ab68f09F8]",
        "[100000000000000]",
        "[0x]",
        "Proposal to send 0.0001 ETH"
      ],
      "transaction": {
        "from": "0x070337669a3e72249f39434aa2ca326ab68f09f8",
        "to": "0x0b70f10f27badcd1341e78387607c6fd6fd8f8dc",
        "gas": "0x50ad5",
        "value": "0x0",
        "input": "0x7d5e81e2000000000000000000000000000000000000000000000000000000000000008000000000000000000000000000000000000000000000000000000000000000c0000000000000000000000000000000000000000000000000000000000000010000000000000000000000000000000000000000000000000000000000000001600000000000000000000000000000000000000000000000000000000000000001000000000000000000000000070337669a3e72249f39434aa2ca326ab68f09f8000000000000000000000000000000000000000000000000000000000000000100000000000000000000000000000000000000000000000000005af3107a4000000000000000000000000000000000000000000000000000000000000000000100000000000000000000000000000000000000000000000000000000000000200000000000000000000000000000000000000000000000000000000000000000000000000000000000000000000000000000000000000000000000000000001b50726f706f73616c20746f2073656e6420302e30303031204554480000000000",
        "nonce": "0x92",
        "chainId": "0x66eee"
      },
      "additionalContracts": [],
      "isFixedGasLimit": false
    }
  ],
  "receipts": [
    {
      "status": "0x1",
      "cumulativeGasUsed": "0x3d49b",
      "logs": [
        {
          "address": "0x0b70f10f27badcd1341e78387607c6fd6fd8f8dc",
          "topics": [
            "0x7d84a6263ae0d98d3329bd7b46bb4e8d6f98cd35a7adb45c274c8b7fd5ebd5e0"
          ],
          "data": "0xeaaa131636faf9ff892b21d5833c31c0f1ceef333a7dae7b6eb351101ad7ccb9000000000000000000000000070337669a3e72249f39434aa2ca326ab68f09f80000000000000000000000000000000000000000000000000000000000000120000000000000000000000000000000000000000000000000000000000000016000000000000000000000000000000000000000000000000000000000000001a0000000000000000000000000000000000000000000000000000000000000020000000000000000000000000000000000000000000000000000000000006be87900000000000000000000000000000000000000000000000000000000006c049900000000000000000000000000000000000000000000000000000000000002600000000000000000000000000000000000000000000000000000000000000001000000000000000000000000070337669a3e72249f39434aa2ca326ab68f09f8000000000000000000000000000000000000000000000000000000000000000100000000000000000000000000000000000000000000000000005af3107a4000000000000000000000000000000000000000000000000000000000000000000100000000000000000000000000000000000000000000000000000000000000200000000000000000000000000000000000000000000000000000000000000000000000000000000000000000000000000000000000000000000000000000000100000000000000000000000000000000000000000000000000000000000000200000000000000000000000000000000000000000000000000000000000000000000000000000000000000000000000000000000000000000000000000000001b50726f706f73616c20746f2073656e6420302e30303031204554480000000000",
          "blockHash": "0x625ffddeaa4c4c2f2dcd9d5f9fcd62368dd1d52754ac008d7bb9481f8a817c40",
          "blockNumber": "0x5c9f0c3",
          "transactionHash": "0x8626a7ecf9820f2e8e6f1a0dd7263dd67121e3a386c910a3388dbfe590d47a07",
          "transactionIndex": "0x1",
          "logIndex": "0x0",
          "removed": false
        }
      ],
      "logsBloom": "0x00000000000000000000000000000000000000000000000000000000000000000000000000000000000000000000000000000000000000000000000000000000000000000002000000000000000000000000000000000000000000000000000000000000000000000000000000000000000000000000000000000000000000000000000000000000000000000000000000000000000000000000000000000000080000000100000000000000000000000000000000000000100000000000000200000000000000000000000000000000000000000000000000000000000000000000000000000000000000000000000000000000000001000000000000000000",
      "type": "0x2",
      "transactionHash": "0x8626a7ecf9820f2e8e6f1a0dd7263dd67121e3a386c910a3388dbfe590d47a07",
      "transactionIndex": "0x1",
      "blockHash": "0x625ffddeaa4c4c2f2dcd9d5f9fcd62368dd1d52754ac008d7bb9481f8a817c40",
      "blockNumber": "0x5c9f0c3",
      "gasUsed": "0x3d49b",
      "effectiveGasPrice": "0x5f5e100",
      "from": "0x070337669a3e72249f39434aa2ca326ab68f09f8",
      "to": "0x0b70f10f27badcd1341e78387607c6fd6fd8f8dc",
      "contractAddress": null,
      "gasUsedForL1": "0x0",
      "l1BlockNumber": "0x6be86f"
    }
  ],
  "libraries": [],
  "pending": [],
  "returns": {},
  "timestamp": 1731544177,
  "chain": 421614,
  "commit": "bce128a"
}