{
  "transactions": [
    {
      "hash": "0xd319d4dfe676dcdc35e6a6842240e37b36c58939d10c77c7a94dadfe29cb3f12",
      "transactionType": "CALL",
      "contractName": null,
      "contractAddress": "0x0b70f10f27badcd1341e78387607c6fd6fd8f8dc",
      "function": "propose(address[],uint256[],bytes[],string)",
      "arguments": [
        "[0x070337669A3e72249F39434Aa2CA326Ab68f09F8]",
        "[100000000000000]",
        "[0x]",
        "Proposal to send 0.0001 ETH (timestamp: 1731616078)"
      ],
      "transaction": {
        "from": "0x070337669a3e72249f39434aa2ca326ab68f09f8",
        "to": "0x0b70f10f27badcd1341e78387607c6fd6fd8f8dc",
        "gas": "0x4b7bb",
        "value": "0x0",
        "input": "0x7d5e81e2000000000000000000000000000000000000000000000000000000000000008000000000000000000000000000000000000000000000000000000000000000c0000000000000000000000000000000000000000000000000000000000000010000000000000000000000000000000000000000000000000000000000000001600000000000000000000000000000000000000000000000000000000000000001000000000000000000000000070337669a3e72249f39434aa2ca326ab68f09f8000000000000000000000000000000000000000000000000000000000000000100000000000000000000000000000000000000000000000000005af3107a4000000000000000000000000000000000000000000000000000000000000000000100000000000000000000000000000000000000000000000000000000000000200000000000000000000000000000000000000000000000000000000000000000000000000000000000000000000000000000000000000000000000000000003350726f706f73616c20746f2073656e6420302e3030303120455448202874696d657374616d703a20313733313631363037382900000000000000000000000000",
        "nonce": "0x94",
        "chainId": "0x66eee"
      },
      "additionalContracts": [],
      "isFixedGasLimit": false
    }
  ],
  "receipts": [
    {
      "status": "0x1",
      "cumulativeGasUsed": "0x3951c",
      "logs": [
        {
          "address": "0x0b70f10f27badcd1341e78387607c6fd6fd8f8dc",
          "topics": [
            "0x7d84a6263ae0d98d3329bd7b46bb4e8d6f98cd35a7adb45c274c8b7fd5ebd5e0"
          ],
          "data": "0xc7e973f9bf0822b7c3bed978e8b88dfb4bef91eb8250e278cd2894bc3c65127c000000000000000000000000070337669a3e72249f39434aa2ca326ab68f09f80000000000000000000000000000000000000000000000000000000000000120000000000000000000000000000000000000000000000000000000000000016000000000000000000000000000000000000000000000000000000000000001a0000000000000000000000000000000000000000000000000000000000000020000000000000000000000000000000000000000000000000000000000006bfe8600000000000000000000000000000000000000000000000000000000006c1aa600000000000000000000000000000000000000000000000000000000000002600000000000000000000000000000000000000000000000000000000000000001000000000000000000000000070337669a3e72249f39434aa2ca326ab68f09f8000000000000000000000000000000000000000000000000000000000000000100000000000000000000000000000000000000000000000000005af3107a4000000000000000000000000000000000000000000000000000000000000000000100000000000000000000000000000000000000000000000000000000000000200000000000000000000000000000000000000000000000000000000000000000000000000000000000000000000000000000000000000000000000000000000100000000000000000000000000000000000000000000000000000000000000200000000000000000000000000000000000000000000000000000000000000000000000000000000000000000000000000000000000000000000000000000003350726f706f73616c20746f2073656e6420302e3030303120455448202874696d657374616d703a20313733313631363037382900000000000000000000000000",
          "blockHash": "0x63fdc6c57561b3a4851f47055bbc698b1bd332c852e1f0aa84fa930d7cc1eeab",
          "blockNumber": "0x5cde359",
          "transactionHash": "0xd319d4dfe676dcdc35e6a6842240e37b36c58939d10c77c7a94dadfe29cb3f12",
          "transactionIndex": "0x1",
          "logIndex": "0x0",
          "removed": false
        }
      ],
      "logsBloom": "0x00000000000000000000000000000000000000000000000000000000000000000000000000000000000000000000000000000000000000000000000000000000000000000002000000000000000000000000000000000000000000000000000000000000000000000000000000000000000000000000000000000000000000000000000000000000000000000000000000000000000000000000000000000000080000000100000000000000000000000000000000000000100000000000000200000000000000000000000000000000000000000000000000000000000000000000000000000000000000000000000000000000000001000000000000000000",
      "type": "0x2",
      "transactionHash": "0xd319d4dfe676dcdc35e6a6842240e37b36c58939d10c77c7a94dadfe29cb3f12",
      "transactionIndex": "0x1",
      "blockHash": "0x63fdc6c57561b3a4851f47055bbc698b1bd332c852e1f0aa84fa930d7cc1eeab",
      "blockNumber": "0x5cde359",
      "gasUsed": "0x3951c",
      "effectiveGasPrice": "0x5f5e100",
      "from": "0x070337669a3e72249f39434aa2ca326ab68f09f8",
      "to": "0x0b70f10f27badcd1341e78387607c6fd6fd8f8dc",
      "contractAddress": null,
      "gasUsedForL1": "0x55",
      "l1BlockNumber": "0x6bfe7c"
    }
  ],
  "libraries": [],
  "pending": [],
  "returns": {},
  "timestamp": 1731616216,
  "chain": 421614,
  "commit": "20dad1d"
}